{
  "contractName": "BaseGame",
  "abi": [
    {
      "constant": false,
      "inputs": [
        {
          "name": "newOwner",
          "type": "address"
        }
      ],
      "name": "setOwner",
      "outputs": [
        {
          "name": "success",
          "type": "bool"
        }
      ],
      "payable": false,
      "stateMutability": "nonpayable",
      "type": "function"
    },
    {
      "constant": false,
      "inputs": [
        {
          "name": "newState",
          "type": "bool"
        }
      ],
      "name": "setPaused",
      "outputs": [
        {
          "name": "success",
          "type": "bool"
        }
      ],
      "payable": false,
      "stateMutability": "nonpayable",
      "type": "function"
    },
    {
      "constant": true,
      "inputs": [],
      "name": "getOwner",
      "outputs": [
        {
          "name": "owner",
          "type": "address"
        }
      ],
      "payable": false,
      "stateMutability": "view",
      "type": "function"
    },
    {
      "constant": true,
      "inputs": [],
      "name": "isPaused",
      "outputs": [
        {
          "name": "isIndeed",
          "type": "bool"
        }
      ],
      "payable": false,
      "stateMutability": "view",
      "type": "function"
    },
    {
      "inputs": [],
      "payable": true,
      "stateMutability": "payable",
      "type": "constructor"
    },
    {
      "anonymous": false,
      "inputs": [
        {
          "indexed": true,
          "name": "matchId",
          "type": "uint256"
        },
        {
          "indexed": false,
          "name": "description",
          "type": "string"
        },
        {
          "indexed": false,
          "name": "timestamp",
          "type": "uint256"
        }
      ],
      "name": "LogNewOraclizeQuery",
      "type": "event"
    },
    {
      "anonymous": false,
      "inputs": [
        {
          "indexed": false,
          "name": "assetPair",
          "type": "string"
        },
        {
          "indexed": false,
          "name": "matchId",
          "type": "uint256"
        },
        {
          "indexed": true,
          "name": "player",
          "type": "address"
        },
        {
          "indexed": false,
          "name": "amount",
          "type": "uint256"
        },
        {
          "indexed": false,
          "name": "timestamp",
          "type": "uint256"
        }
      ],
      "name": "LogEarningsWithdrawn",
      "type": "event"
    },
    {
      "anonymous": false,
      "inputs": [
        {
          "indexed": false,
          "name": "assetPair",
          "type": "string"
        },
        {
          "indexed": true,
          "name": "matchId",
          "type": "uint256"
        },
        {
          "indexed": false,
          "name": "startTime",
          "type": "uint256"
        },
        {
          "indexed": false,
          "name": "initialPrice",
          "type": "uint256"
        }
      ],
      "name": "LogMatchStarted",
      "type": "event"
    },
    {
      "anonymous": false,
      "inputs": [
        {
          "indexed": false,
          "name": "assetPair",
          "type": "string"
        },
        {
          "indexed": true,
          "name": "matchId",
          "type": "uint256"
        },
        {
          "indexed": false,
          "name": "totalPool",
          "type": "uint256"
        },
        {
          "indexed": false,
          "name": "timestamp",
          "type": "uint256"
        }
      ],
      "name": "LogBettingPeriodEnd",
      "type": "event"
    },
    {
      "anonymous": false,
      "inputs": [
        {
          "indexed": false,
          "name": "assetPair",
          "type": "string"
        },
        {
          "indexed": true,
          "name": "matchId",
          "type": "uint256"
        },
        {
          "indexed": true,
          "name": "player",
          "type": "address"
        },
        {
          "indexed": false,
          "name": "ticketsBought",
          "type": "uint256"
        },
        {
          "indexed": false,
          "name": "playerTotalTickets",
          "type": "uint256"
        },
        {
          "indexed": false,
          "name": "option",
          "type": "bool"
        },
        {
          "indexed": false,
          "name": "optionTotalTickets",
          "type": "uint256"
        },
        {
          "indexed": false,
          "name": "timestamp",
          "type": "uint256"
        }
      ],
      "name": "LogTicketBought",
      "type": "event"
    },
    {
      "anonymous": false,
      "inputs": [
        {
          "indexed": false,
          "name": "assetPair",
          "type": "string"
        },
        {
          "indexed": true,
          "name": "matchId",
          "type": "uint256"
        },
        {
          "indexed": false,
          "name": "startTime",
          "type": "uint256"
        },
        {
          "indexed": false,
          "name": "endTime",
          "type": "uint256"
        },
        {
          "indexed": false,
          "name": "initialPrice",
          "type": "uint256"
        },
        {
          "indexed": false,
          "name": "endPrice",
          "type": "uint256"
        },
        {
          "indexed": false,
          "name": "earningsByTicket",
          "type": "uint256"
        },
        {
          "indexed": false,
          "name": "winnerOption",
          "type": "bool"
        }
      ],
      "name": "LogMatchFinished",
      "type": "event"
    },
    {
      "anonymous": false,
      "inputs": [
        {
          "indexed": true,
          "name": "sender",
          "type": "address"
        },
        {
          "indexed": true,
          "name": "newPausedState",
          "type": "bool"
        }
      ],
      "name": "LogPausedSet",
      "type": "event"
    },
    {
      "anonymous": false,
      "inputs": [
        {
          "indexed": true,
          "name": "previousOwner",
          "type": "address"
        },
        {
          "indexed": true,
          "name": "newOwner",
          "type": "address"
        }
      ],
      "name": "LogOwnerSet",
      "type": "event"
    },
    {
      "constant": false,
      "inputs": [
        {
          "name": "_assetPair",
          "type": "string"
        },
        {
          "name": "_assetPairAlias",
          "type": "string"
        },
        {
          "name": "_description",
          "type": "string"
        }
      ],
      "name": "setAssetPairInformation",
      "outputs": [],
      "payable": false,
      "stateMutability": "nonpayable",
      "type": "function"
    },
    {
      "constant": false,
      "inputs": [
        {
          "name": "_betsDurationMinutes",
          "type": "uint8"
        },
        {
          "name": "_getResultsMinutes",
          "type": "uint8"
        },
        {
          "name": "_maxTicketsPerPlayer",
          "type": "uint8"
        },
        {
          "name": "_ticketPrice",
          "type": "uint256"
        },
        {
          "name": "_houseEdge",
          "type": "uint256"
        },
        {
          "name": "_oraclizeGasLimit",
          "type": "uint32"
        }
      ],
      "name": "setGameVariablesAndStart",
      "outputs": [],
      "payable": false,
      "stateMutability": "nonpayable",
      "type": "function"
    },
    {
      "constant": true,
      "inputs": [],
      "name": "getGameInfo",
      "outputs": [
        {
          "name": "_assetPair",
          "type": "string"
        },
        {
          "name": "_assetPairAlias",
          "type": "string"
        },
        {
          "name": "_description",
          "type": "string"
        },
        {
          "name": "_ticketPrice",
          "type": "uint256"
        },
        {
          "name": "_currentMatchId",
          "type": "uint256"
        },
        {
          "name": "_maxTicketsPerPlayer",
          "type": "uint8"
        },
        {
          "name": "_betsDurationMinutes",
          "type": "uint8"
        },
        {
          "name": "_getResultsMinutes",
          "type": "uint8"
        }
      ],
      "payable": false,
      "stateMutability": "view",
      "type": "function"
    },
    {
      "constant": false,
      "inputs": [
        {
          "name": "option",
          "type": "bool"
        }
      ],
      "name": "buyTickets",
      "outputs": [],
      "payable": true,
      "stateMutability": "payable",
      "type": "function"
    },
    {
      "constant": false,
      "inputs": [
        {
          "name": "queryId",
          "type": "bytes32"
        },
        {
          "name": "result",
          "type": "string"
        }
      ],
      "name": "__callback",
      "outputs": [],
      "payable": false,
      "stateMutability": "nonpayable",
      "type": "function"
    },
    {
      "constant": false,
      "inputs": [
        {
          "name": "myid",
          "type": "bytes32"
        },
        {
          "name": "result",
          "type": "string"
        },
        {
          "name": "proof",
          "type": "bytes"
        }
      ],
      "name": "__callback",
      "outputs": [],
      "payable": false,
      "stateMutability": "nonpayable",
      "type": "function"
    },
    {
      "constant": false,
      "inputs": [],
      "name": "withdrawEarnings",
      "outputs": [],
      "payable": false,
      "stateMutability": "nonpayable",
      "type": "function"
    },
    {
      "constant": false,
      "inputs": [],
      "name": "destructContract",
      "outputs": [],
      "payable": false,
      "stateMutability": "nonpayable",
      "type": "function"
    }
  ],
  "bytecode": "0x60806040526005805460a060020a60ff0219600160a060020a03199091163317169055613ff3806100316000396000f3006080604052600436106100a05763ffffffff60e060020a60003504166313af403581146100a557806316c38b3c146100da5780631746bd1b146100f45780631d4418c11461027a57806327dc297e1461028957806338bbfa50146102e75780633952d9a114610383578063893d20e8146103b95780639499e018146103ea578063ace69552146103ff578063b187bd2614610437578063b73c6ce91461044c575b600080fd5b3480156100b157600080fd5b506100c6600160a060020a0360043516610461565b604080519115158252519081900360200190f35b3480156100e657600080fd5b506100c66004351515610500565b34801561010057600080fd5b506101096105be565b60408051606081018790526080810186905260ff80861660a083015284811660c0830152831660e08201526101008082528a51908201528951909182916020808401928401916101208501918e019080838360005b8381101561017657818101518382015260200161015e565b50505050905090810190601f1680156101a35780820380516001836020036101000a031916815260200191505b5084810383528b5181528b516020918201918d019080838360005b838110156101d65781810151838201526020016101be565b50505050905090810190601f1680156102035780820380516001836020036101000a031916815260200191505b5084810382528a5181528a516020918201918c019080838360005b8381101561023657818101518382015260200161021e565b50505050905090810190601f1680156102635780820380516001836020036101000a031916815260200191505b509b50505050505050505050505060405180910390f35b61028760043515156107bf565b005b34801561029557600080fd5b5060408051602060046024803582810135601f8101859004850286018501909652858552610287958335953695604494919390910191908190840183828082843750949750610cd99650505050505050565b3480156102f357600080fd5b5060408051602060046024803582810135601f810185900485028601850190965285855261028795833595369560449491939091019190819084018382808284375050604080516020601f89358b018035918201839004830284018301909452808352979a99988101979196509182019450925082915084018382808284375094975061115e9650505050505050565b34801561038f57600080fd5b5061028760ff6004358116906024358116906044351660643560843563ffffffff60a43516611163565b3480156103c557600080fd5b506103ce6114bf565b60408051600160a060020a039092168252519081900360200190f35b3480156103f657600080fd5b506102876114cf565b34801561040b57600080fd5b50610287602460048035828101929082013591813580830192908201359160443591820191013561155b565b34801561044357600080fd5b506100c661177c565b34801561045857600080fd5b5061028761178c565b600554600090600160a060020a0316331461047b57600080fd5b600554600160a060020a038381169116141561049657600080fd5b600160a060020a03821615156104ab57600080fd5b60058054600160a060020a031916600160a060020a0384811691821792839055604051919216907fa1d2149652d81eb35c360c115fc7ac594124cb1ea8a5a33e9a7f5768c62869fb90600090a3506001919050565b600554600090600160a060020a0316331461051a57600080fd5b60055460ff60a060020a909104161515821515141561055d576040805160e560020a62461bcd028152602060048201526000602482015290519081900360640190fd5b6005805474ff0000000000000000000000000000000000000000191660a060020a8415159081029190911790915560405133907fae0f86d9801b0bd39a2ce25d9fd1f202f2fd22e80150be4a99adb0275a635d6c90600090a3506001919050565b600c54600a54600b54600680546040805160206002610100600186161581026000190190951604601f810182900482028301820190935282825260609788978897600097889788978897889793966007966008969195909462010000830460ff908116958185169592909404169290918a91908301828280156106825780601f1061065757610100808354040283529160200191610682565b820191906000526020600020905b81548152906001019060200180831161066557829003601f168201915b50508a5460408051602060026001851615610100026000190190941693909304601f8101849004840282018401909252818152959d508c9450925084019050828280156107105780601f106106e557610100808354040283529160200191610710565b820191906000526020600020905b8154815290600101906020018083116106f357829003601f168201915b5050895460408051602060026001851615610100026000190190941693909304601f8101849004840282018401909252818152959c508b94509250840190508282801561079e5780601f106107735761010080835404028352916020019161079e565b820191906000526020600020905b81548152906001019060200180831161078157829003601f168201915b50505050509550975097509750975097509750975097509091929394959697565b600080806001600a546000908152601160205260409020600f015460ff1660038111156107e857fe5b14610863576040805160e560020a62461bcd02815260206004820152602360248201527f4d6174636820737461747573206d757374206265202742657473416c6c6f776560448201527f6427210000000000000000000000000000000000000000000000000000000000606482015290519081900360840190fd5b60055460a060020a900460ff161561089f576040805160e560020a62461bcd028152602060048201526000602482015290519081900360640190fd5b600a546000908152601160209081526040808320338452600701909152902054600c54909350341015610942576040805160e560020a62461bcd02815260206004820152603b60248201527f416d6f756e74206d75737420626520657175616c206f7220677265617465722060448201527f7468616e20612073696e676c65207469636b65742070726963652e0000000000606482015290519081900360840190fd5b600b5462010000900460ff1683106109ca576040805160e560020a62461bcd02815260206004820152603660248201527f557365722072656163686564206d617820616d6f756e74206f66207469636b6560448201527f74732070657220706c6179657220616c6c6f7765642e00000000000000000000606482015290519081900360840190fd5b6000831115610a7657600a54600090815260116020908152604080832033845260080190915290205460ff16151584151415610a76576040805160e560020a62461bcd02815260206004820152602860248201527f557365722063616e6e6f7420627579207469636b657420666f7220626f74682060448201527f6f7074696f6e7321000000000000000000000000000000000000000000000000606482015290519081900360840190fd5b600c54610a8a90349063ffffffff611b9216565b600b5490925062010000900460ff16610aa38385611ba9565b1115610ac257600b54610abf9062010000900460ff1684611bbf565b91505b60008211610acc57fe5b600a805460009081526011602081815260408084203380865260079091018352818520805489019055855485528383528185208a1515808752908701845282862080548a01905595548552928252808420928452600890920190529020805460ff19169091179055600c54610b5990610b4c90849063ffffffff611bd116565b349063ffffffff611bbf16565b90506000811115610b9357604051339082156108fc029083906000818181858888f19350505050158015610b91573d6000803e3d6000fd5b505b6001831015610bc4573360009081526010602090815260408220600a54815460018101835591845291909220909101555b600a8054600081815260116020908152604080832033808552600782018452828520548b1515808752929097018452938290205482519384018990529183018690526060830152608082018190524260a0830181905260c0808452600680546002600019610100600184161502019091160491850182905294967f434171854c3387967e50641b1abcd0383b9c113ec90a73538596de420259172c95948a9491938d93909190819060e082019089908015610cc05780601f10610c9557610100808354040283529160200191610cc0565b820191906000526020600020905b815481529060010190602001808311610ca357829003601f168201915b505097505050505050505060405180910390a350505050565b610ce1611bf5565b600160a060020a03163314610d65576040805160e560020a62461bcd028152602060048201526024808201527f53656e646572206d75737420626520746865204f7261636c697a65206164647260448201527f6573732100000000000000000000000000000000000000000000000000000000606482015290519081900360840190fd5b60055460a060020a900460ff1615610da1576040805160e560020a62461bcd028152602060048201526000602482015290519081900360640190fd5b600a546000908152601160205260409020600c0154821415610ee257610dc8816005611de6565b600a805460009081526011602090815260408083209490945582548252838220600f01805460ff19166001908117909155835483528483204260029182015593548084529285902080850154905486519384018290529583018690526060808452600680549384161561010002600019019093169590950494830185905292947f787e3ea8226c230d070fc2d2a9576f12aa1b18c5e7b48c255229a3efcf073b6b9491939290918190608082019086908015610ec55780601f10610e9a57610100808354040283529160200191610ec5565b820191906000526020600020905b815481529060010190602001808311610ea857829003601f168201915b505094505050505060405180910390a2610edd611fa0565b61115a565b600a546000908152601160205260409020600d015482141561112b57600a80546000908152601160209081526040808320600180855294019091529020541080610f4a5750600a80546000908152601160209081526040808320838052909301905220546001115b15610f5c57610f57611fa0565b610edd565b600a80546000908152601160209081526040808320600f01805460ff19166002179055600c5484548452818420848052909401909152902054610f9e91611bd1565b600a80546000908152601160208181526040808420848052600b01825280842095909555600c5484548452918152848320600184529093019092529190912054610fed9163ffffffff611bd116565b600a805460009081526011602081815260408084206001808652600b91820184528286209790975594548452918152818320948352939092019092528082205482805291205461103c91611ba9565b600a80546000908152601160209081526040808320600490810195909555925480835291839020909301548251938401819052429284018390526060808552600680546002600019610100600184161502019091160491860182905292947fbe57cf4d2574821a8fb36c313635579d18d677b1743842e8954d425c064d7fbf949181906080820190869080156111135780601f106110e857610100808354040283529160200191611113565b820191906000526020600020905b8154815290600101906020018083116110f657829003601f168201915b505094505050505060405180910390a2610edd6122da565b600a546000908152601160205260409020600e015482141561115a5761115a611155826005611de6565b61263e565b5050565b505050565b600554600160a060020a0316331461117a57600080fd5b60055460a060020a900460ff16156111b6576040805160e560020a62461bcd028152602060048201526000602482015290519081900360640190fd5b60095460006002600019610100600185161502019092169190910411611226576040805160e560020a62461bcd02815260206004820152601d60248201527f526573756c747320456e64706f696e74206d7573742062652073657421000000604482015290519081900360640190fd5b600060ff8716116112a7576040805160e560020a62461bcd02815260206004820152602260248201527f42657473206475726174696f6e2074696d652063616e6e6f74206265207a657260448201527f6f21000000000000000000000000000000000000000000000000000000000000606482015290519081900360840190fd5b600060ff861611611327576040805160e560020a62461bcd028152602060048201526024808201527f47657420726573756c74732074726573686f6c642063616e6e6f74206265207a60448201527f65726f2100000000000000000000000000000000000000000000000000000000606482015290519081900360840190fd5b600060ff8516116113a8576040805160e560020a62461bcd02815260206004820152602660248201527f4d6178207469636b6574732070657220706c617965722063616e6e6f7420626560448201527f207a65726f210000000000000000000000000000000000000000000000000000606482015290519081900360840190fd5b60008311611400576040805160e560020a62461bcd02815260206004820152601c60248201527f5469636b65742070726963652063616e6e6f74206265207a65726f2100000000604482015290519081900360640190fd5b600063ffffffff82161161145e576040805160e560020a62461bcd02815260206004820152601c60248201527f4d61746368207374617475732063616e6e6f74206265207a65726f2100000000604482015290519081900360640190fd5b600b805460ff191660ff8881169190911761ff001916610100888316021762ff000019166201000091871691909102179055600c839055600d829055600e805463ffffffff191663ffffffff83161790556114b7612784565b505050505050565b600554600160a060020a03165b90565b600554600160a060020a031633146114e657600080fd5b30600160a060020a031663893d20e86040518163ffffffff1660e060020a028152600401602060405180830381600087803b15801561152457600080fd5b505af1158015611538573d6000803e3d6000fd5b505050506040513d602081101561154e57600080fd5b5051600160a060020a0316ff5b600554600160a060020a0316331461157257600080fd5b60055460a060020a900460ff16156115ae576040805160e560020a62461bcd028152602060048201526000602482015290519081900360640190fd5b6000851161162b576040805160e560020a62461bcd028152602060048201526024808201527f417373657420706169722063616e6e6f7420626520616e20656d70747920766160448201527f6c75652100000000000000000000000000000000000000000000000000000000606482015290519081900360840190fd5b600083116116a9576040805160e560020a62461bcd02815260206004820152602a60248201527f4173736574207061697220616c6961732063616e6e6f7420626520616e20656d60448201527f7074792076616c75652100000000000000000000000000000000000000000000606482015290519081900360840190fd5b60008111611727576040805160e560020a62461bcd02815260206004820152602560248201527f4465736372697074696f6e2063616e6e6f7420626520616e20656d707479207660448201527f616c756521000000000000000000000000000000000000000000000000000000606482015290519081900360840190fd5b60008054600160a060020a031916736f485c8bf6fc43ea212e93bbf8ce046c7f1cb47517905561175960068787613e8a565b5061176660078585613e8a565b5061177360088383613e8a565b506114b761281e565b60055460a060020a900460ff1690565b600060606000806000806000600560149054906101000a900460ff161515156117d9576040805160e560020a62461bcd028152602060048201526000602482015290519081900360640190fd5b336000908152601060209081526040918290208054835181840281018401909452808452909183018282801561182e57602002820191906000526020600020905b81548152602001906001019080831161181a575b5050505050955060008651111515611890576040805160e560020a62461bcd02815260206004820152601160248201527f506c61796572206e6f7420666f756e6421000000000000000000000000000000604482015290519081900360640190fd5b600094505b85518560ff161015611b895760116000878760ff168151811015156118b657fe5b6020908102909101810151825281019190915260400160002093506003600f85015460ff1660038111156118e657fe5b1415611b7e5733600090815260098501602052604090205460ff161515611b7e57600684015433600090815260088601602052604090205460ff9081161515911615151415611b7e5733600090815260078501602052604090205460058501546119559163ffffffff611bd116565b336000908152600786016020526040902054600c5491945061197d919063ffffffff611bd116565b915061198f838363ffffffff611ba916565b96870196905060008711611a13576040805160e560020a62461bcd02815260206004820152602d60248201527f416d6f756e7420746f207769746864726177206d75737420626520677265617460448201527f6572207468616e207a65726f2e00000000000000000000000000000000000000606482015290519081900360840190fd5b600160116000888860ff16815181101515611a2a57fe5b60209081029190910181015182528181019290925260409081016000908120338083526009909101909352818120805460ff1916941515949094179093555190916108fc8a1502918a91818181858888f19350505050158015611a91573d6000803e3d6000fd5b5033600160a060020a03167f23c27a6dbc36692b0d001d9f87f937ef4570a90e6a9fa854c3519b0d49266e746006888860ff16815181101515611ad057fe5b60209081029091018101516040805192830182905282018c90524260608301819052608080845284546002600019610100600184161502019091160490840181905291928d92819060a082019087908015611b6c5780601f10611b4157610100808354040283529160200191611b6c565b820191906000526020600020905b815481529060010190602001808311611b4f57829003601f168201915b50509550505050505060405180910390a25b600190940193611895565b50505050505050565b6000808284811515611ba057fe5b04949350505050565b600082820183811015611bb857fe5b9392505050565b600082821115611bcb57fe5b50900390565b6000828202831580611bed5750828482811515611bea57fe5b04145b1515611bb857fe5b60008054600160a060020a03161580611c205750600054611c1e90600160a060020a0316612a39565b155b15611c3157611c2f6000612a3d565b505b6000809054906101000a9004600160a060020a0316600160a060020a03166338cc48316040518163ffffffff1660e060020a028152600401602060405180830381600087803b158015611c8357600080fd5b505af1158015611c97573d6000803e3d6000fd5b505050506040513d6020811015611cad57600080fd5b5051600154600160a060020a03908116911614611d62576000809054906101000a9004600160a060020a0316600160a060020a03166338cc48316040518163ffffffff1660e060020a028152600401602060405180830381600087803b158015611d1657600080fd5b505af1158015611d2a573d6000803e3d6000fd5b505050506040513d6020811015611d4057600080fd5b505160018054600160a060020a031916600160a060020a039092169190911790555b600160009054906101000a9004600160a060020a0316600160a060020a031663c281d19e6040518163ffffffff1660e060020a028152600401602060405180830381600087803b158015611db557600080fd5b505af1158015611dc9573d6000803e3d6000fd5b505050506040513d6020811015611ddf57600080fd5b5051905090565b6000828180805b8351811015611f835783517f300000000000000000000000000000000000000000000000000000000000000090859083908110611e2657fe5b90602001015160f860020a900460f860020a027effffffffffffffffffffffffffffffffffffffffffffffffffffffffffffff191610158015611ecc575083517f390000000000000000000000000000000000000000000000000000000000000090859083908110611e9457fe5b90602001015160f860020a900460f860020a027effffffffffffffffffffffffffffffffffffffffffffffffffffffffffffff191611155b15611f25578115611eeb57851515611ee357611f83565b600019909501945b600a8302925060308482815181101515611f0157fe5b90602001015160f860020a900460f860020a0260f860020a90040383019250611f7b565b8381815181101515611f3357fe5b90602001015160f860020a900460f860020a027effffffffffffffffffffffffffffffffffffffffffffffffffffffffffffff1916602e60f860020a021415611f7b57600191505b600101611ded565b6000861115611f955785600a0a830292505b509095945050505050565b6001600a546000908152601160205260409020600f015460ff166003811115611fc557fe5b14612040576040805160e560020a62461bcd02815260206004820152602360248201527f4d6174636820737461747573206d757374206265202742657473416c6c6f776560448201527f6427210000000000000000000000000000000000000000000000000000000000606482015290519081900360840190fd5b60055460a060020a900460ff161561207c576040805160e560020a62461bcd028152602060048201526000602482015290519081900360640190fd5b60408051808201909152600c81527f576f6c6672616d416c70686100000000000000000000000000000000000000006020820152600e543031916120c59163ffffffff16612a4d565b111561219857600a54604080514260208201528181526068818301527f4f7261636c697a6520717565727920776173206e6f742073656e74206475652060608201527f746f20696e73756666696369656e742062616c616e63652c20706c656173652060808201527f61646420736f6d652045544820746f20636f76657220666f722074686520717560a08201527f657279206665652e00000000000000000000000000000000000000000000000060c08201529051600080516020613fa88339815191529181900360e00190a26122d8565b600a54604080514260208201528181526046818301527f4f7261636c697a65207175657279207761732073656e7420746f20737461727460608201527f2062657474696e6720706572696f642c2077616974696e6720666f7220616e7360808201527f7765722e2e2e000000000000000000000000000000000000000000000000000060a08201529051600080516020613fa88339815191529181900360c00190a2600b54604080518082018252600c81527f576f6c6672616d416c70686100000000000000000000000000000000000000006020808301919091528251808401909352600983527f74696d657374616d70000000000000000000000000000000000000000000000090830152600e546122c293603c60ff9182160216929063ffffffff16612cba565b600a546000908152601160205260409020600d01555b565b6002600a546000908152601160205260409020600f015460ff1660038111156122ff57fe5b1461237a576040805160e560020a62461bcd02815260206004820152602660248201527f4d6174636820737461747573206d7573742062652027426574734e6f74416c6c60448201527f6f77656427210000000000000000000000000000000000000000000000000000606482015290519081900360840190fd5b60055460a060020a900460ff16156123b6576040805160e560020a62461bcd028152602060048201526000602482015290519081900360640190fd5b604080518082019091526003815260ea60020a62155493026020820152600e543031916123e89163ffffffff16612a4d565b11156124bb57600a54604080514260208201528181526068818301527f4f7261636c697a6520717565727920776173206e6f742073656e74206475652060608201527f746f20696e73756666696369656e742062616c616e63652c20706c656173652060808201527f61646420736f6d652045544820746f20636f76657220666f722074686520717560a08201527f657279206665652e00000000000000000000000000000000000000000000000060c08201529051600080516020613fa88339815191529181900360e00190a26122d8565b600a54604080514260208201528181526046818301527f4f7261636c697a65207175657279207761732073656e7420746f20676574207060608201527f6169722066696e616c2070726963652c2077616974696e6720666f7220616e7360808201527f7765722e2e2e000000000000000000000000000000000000000000000000000060a08201529051600080516020613fa88339815191529181900360c00190a2600b546040805180820182526003815260ea60020a62155493026020808301919091526009805484516002610100600184161581026000190190931604601f8101859004850282018501909652858152612627969190910460ff908116603c02169490928301828280156126125780601f106125e757610100808354040283529160200191612612565b820191906000526020600020905b8154815290600101906020018083116125f557829003601f168201915b5050600e5463ffffffff169250612cba915050565b600a546000908152601160205260409020600e0155565b6002600a546000908152601160205260409020600f015460ff16600381111561266357fe5b146126de576040805160e560020a62461bcd02815260206004820152602660248201527f4d6174636820737461747573206d7573742062652027426574734e6f74416c6c60448201527f6f77656427210000000000000000000000000000000000000000000000000000606482015290519081900360840190fd5b60055460a060020a900460ff161561271a576040805160e560020a62461bcd028152602060048201526000602482015290519081900360640190fd5b600a8054600090815260116020526040808220600f018054600360ff1991821617909155835483528183206001908101869055845484528284208054918101546006918201805490941692109190911790915592548252902001546127819060ff166130bc565b50565b60055460a060020a900460ff16156127c0576040805160e560020a62461bcd028152602060048201526000602482015290519081900360640190fd5b600a805460019081018083556000908152601160205260408120600f908101805460ff191690559254835492830184559290527f8d1108e10bcb7c27dddfc02ed9d693a074039d026cf4ea4240b40f7d581ac80201556122d8613342565b60055460609081908190600160a060020a0316331461283c57600080fd5b60055460a060020a900460ff1615612878576040805160e560020a62461bcd028152602060048201526000602482015290519081900360640190fd5b606060405190810160405280603181526020017f6a736f6e2868747470733a2f2f6170692e6b72616b656e2e636f6d2f302f707581526020017f626c69632f5469636b65723f706169723d00000000000000000000000000000081525092506040805190810160405280600981526020017f292e726573756c742e000000000000000000000000000000000000000000000081525091506040805190810160405280600481526020017f2e632e30000000000000000000000000000000000000000000000000000000008152509050612a1f612a16612a08612965612a08612a0d612a086129658861366f565b60068054604080516020601f600260001961010060018816150201909516949094049384018190048102820181019092528281526129fc93909290918301828280156129f25780601f106129c7576101008083540402835291602001916129f2565b820191906000526020600020905b8154815290600101906020018083116129d557829003601f168201915b505050505061366f565b9063ffffffff61369516565b61366f565b6129fc8861366f565b6129fc8561366f565b8051612a3391600991602090910190613f08565b50505050565b3b90565b6000612a4761370c565b92915050565b60008054600160a060020a03161580612a785750600054612a7690600160a060020a0316612a39565b155b15612a8957612a876000612a3d565b505b6000809054906101000a9004600160a060020a0316600160a060020a03166338cc48316040518163ffffffff1660e060020a028152600401602060405180830381600087803b158015612adb57600080fd5b505af1158015612aef573d6000803e3d6000fd5b505050506040513d6020811015612b0557600080fd5b5051600154600160a060020a03908116911614612bba576000809054906101000a9004600160a060020a0316600160a060020a03166338cc48316040518163ffffffff1660e060020a028152600401602060405180830381600087803b158015612b6e57600080fd5b505af1158015612b82573d6000803e3d6000fd5b505050506040513d6020811015612b9857600080fd5b505160018054600160a060020a031916600160a060020a039092169190911790555b600154604080517f2ef3accc0000000000000000000000000000000000000000000000000000000081526024810185905260048101918252855160448201528551600160a060020a0390931692632ef3accc9287928792829160640190602086019080838360005b83811015612c3a578181015183820152602001612c22565b50505050905090810190601f168015612c675780820380516001836020036101000a031916815260200191505b509350505050602060405180830381600087803b158015612c8757600080fd5b505af1158015612c9b573d6000803e3d6000fd5b505050506040513d6020811015612cb157600080fd5b50519392505050565b600080548190600160a060020a03161580612ce75750600054612ce590600160a060020a0316612a39565b155b15612cf857612cf66000612a3d565b505b6000809054906101000a9004600160a060020a0316600160a060020a03166338cc48316040518163ffffffff1660e060020a028152600401602060405180830381600087803b158015612d4a57600080fd5b505af1158015612d5e573d6000803e3d6000fd5b505050506040513d6020811015612d7457600080fd5b5051600154600160a060020a03908116911614612e29576000809054906101000a9004600160a060020a0316600160a060020a03166338cc48316040518163ffffffff1660e060020a028152600401602060405180830381600087803b158015612ddd57600080fd5b505af1158015612df1573d6000803e3d6000fd5b505050506040513d6020811015612e0757600080fd5b505160018054600160a060020a031916600160a060020a039092169190911790555b600154604080517f2ef3accc0000000000000000000000000000000000000000000000000000000081526024810186905260048101918252875160448201528751600160a060020a0390931692632ef3accc9289928892829160640190602086019080838360005b83811015612ea9578181015183820152602001612e91565b50505050905090810190601f168015612ed65780820380516001836020036101000a031916815260200191505b509350505050602060405180830381600087803b158015612ef657600080fd5b505af1158015612f0a573d6000803e3d6000fd5b505050506040513d6020811015612f2057600080fd5b50519050670de0b6b3a76400003a840201811115612f4157600091506130b3565b6001546040517fc51be90f0000000000000000000000000000000000000000000000000000000081526004810188815260648201869052608060248301908152885160848401528851600160a060020a039094169363c51be90f9386938c938c938c938c939291604482019160a40190602088019080838360005b83811015612fd4578181015183820152602001612fbc565b50505050905090810190601f1680156130015780820380516001836020036101000a031916815260200191505b50838103825285518152855160209182019187019080838360005b8381101561303457818101518382015260200161301c565b50505050905090810190601f1680156130615780820380516001836020036101000a031916815260200191505b5096505050505050506020604051808303818588803b15801561308357600080fd5b505af1158015613097573d6000803e3d6000fd5b50505050506040513d60208110156130ae57600080fd5b505191505b50949350505050565b6005546000908190819060a060020a900460ff16156130ff576040805160e560020a62461bcd028152602060048201526000602482015290519081900360640190fd5b6003600a546000908152601160205260409020600f015460ff16600381111561312457fe5b14613179576040805160e560020a62461bcd02815260206004820181905260248201527f4d6174636820737461747573206d757374206265202746696e69736865642721604482015290519081900360640190fd5b600a805460009081526011602090815260408083208815845290930190522054600d546131ab9163ffffffff611bd116565b600a54600090815260116020908152604080832088158452600b019091529020549093506131df908463ffffffff611bbf16565b600a8054600090815260116020908152604080832089151584529093019052205490925061321490839063ffffffff611b9216565b600a80546000908152601160209081526040808320600590810186905593548084529281902060028082015482546001808501549885015460069586015487519889018590524297890188905260608901849052608089018b905260a0890182905260ff1680151560c08a015260e0808a5287546101009481161585026000190116969096049589018690529a9b5097997f058b7084d7a6365d5e73ac995592f904b0c913e8fd531dec32a2fe15b7b7dbfd99959893979295949092918291908201908a9080156133265780601f106132fb57610100808354040283529160200191613326565b820191906000526020600020905b81548152906001019060200180831161330957829003601f168201915b50509850505050505050505060405180910390a2612a33612784565b600a546000908152601160205260408120600f015460ff16600381111561336557fe5b146133ba576040805160e560020a62461bcd02815260206004820152601d60248201527f4d6174636820737461747573206d757374206265202752656164792721000000604482015290519081900360640190fd5b60055460a060020a900460ff16156133f6576040805160e560020a62461bcd028152602060048201526000602482015290519081900360640190fd5b604080518082019091526003815260ea60020a62155493026020820152600e543031916134289163ffffffff16612a4d565b11156134fb57600a54604080514260208201528181526068818301527f4f7261636c697a6520717565727920776173206e6f742073656e74206475652060608201527f746f20696e73756666696369656e742062616c616e63652c20706c656173652060808201527f61646420736f6d652045544820746f20636f76657220666f722074686520717560a08201527f657279206665652e00000000000000000000000000000000000000000000000060c08201529051600080516020613fa88339815191529181900360e00190a26122d8565b600a54604080514260208201528181526048818301527f4f7261636c697a65207175657279207761732073656e7420746f20676574207060608201527f61697220696e697469616c2070726963652c2077616974696e6720666f72206160808201527f6e737765722e2e2e00000000000000000000000000000000000000000000000060a08201529051600080516020613fa88339815191529181900360c00190a26040805180820182526003815260ea60020a6215549302602080830191909152600980548451601f6002600019610100600186161502019093169290920491820184900484028101840190955280855261365894928301828280156136435780601f1061361857610100808354040283529160200191613643565b820191906000526020600020905b81548152906001019060200180831161362657829003601f168201915b5050600e5463ffffffff169250613a34915050565b600a546000908152601160205260409020600c0155565b613677613f76565b50604080518082019091528151815260209182019181019190915290565b606080600083600001518560000151016040519080825280601f01601f1916602001820160405280156136d2578160200160208202803883390190505b5091506020820190506136ee8186602001518760000151613e33565b8451602085015185516137049284019190613e33565b509392505050565b60008061372c731d3b2638a7cc9f2cb3d298a3da7a90b67e5506ed612a39565b111561379d5760008054600160a060020a031916731d3b2638a7cc9f2cb3d298a3da7a90b67e5506ed17905560408051808201909152600b81527f6574685f6d61696e6e6574000000000000000000000000000000000000000000602082015261379590613e77565b5060016114cc565b60006137bc73c03a2615d5efaf5f49f60b7bb6583eaec212fdf1612a39565b11156138255760008054600160a060020a03191673c03a2615d5efaf5f49f60b7bb6583eaec212fdf117905560408051808201909152600c81527f6574685f726f707374656e330000000000000000000000000000000000000000602082015261379590613e77565b600061384473b7a07bcf2ba2f2703b24c0691b5278999c59ac7e612a39565b11156138ad5760008054600160a060020a03191673b7a07bcf2ba2f2703b24c0691b5278999c59ac7e17905560408051808201909152600981527f6574685f6b6f76616e0000000000000000000000000000000000000000000000602082015261379590613e77565b60006138cc73146500cfd35b22e4a392fe0adc06de1a1368ed48612a39565b11156139355760008054600160a060020a03191673146500cfd35b22e4a392fe0adc06de1a1368ed4817905560408051808201909152600b81527f6574685f72696e6b656279000000000000000000000000000000000000000000602082015261379590613e77565b6000613954736f485c8bf6fc43ea212e93bbf8ce046c7f1cb475612a39565b1115613988575060008054600160a060020a031916736f485c8bf6fc43ea212e93bbf8ce046c7f1cb47517905560016114cc565b60006139a77320e12a1f859b3feae5fb2a0a32c18f5a65555bbf612a39565b11156139db575060008054600160a060020a0319167320e12a1f859b3feae5fb2a0a32c18f5a65555bbf17905560016114cc565b60006139fa7351efaf4c8b3c9afbd5ab9f4bbc82784ab6ef8faa612a39565b1115613a2e575060008054600160a060020a0319167351efaf4c8b3c9afbd5ab9f4bbc82784ab6ef8faa17905560016114cc565b50600090565b600080548190600160a060020a03161580613a615750600054613a5f90600160a060020a0316612a39565b155b15613a7257613a706000612a3d565b505b6000809054906101000a9004600160a060020a0316600160a060020a03166338cc48316040518163ffffffff1660e060020a028152600401602060405180830381600087803b158015613ac457600080fd5b505af1158015613ad8573d6000803e3d6000fd5b505050506040513d6020811015613aee57600080fd5b5051600154600160a060020a03908116911614613ba3576000809054906101000a9004600160a060020a0316600160a060020a03166338cc48316040518163ffffffff1660e060020a028152600401602060405180830381600087803b158015613b5757600080fd5b505af1158015613b6b573d6000803e3d6000fd5b505050506040513d6020811015613b8157600080fd5b505160018054600160a060020a031916600160a060020a039092169190911790555b600154604080517f2ef3accc0000000000000000000000000000000000000000000000000000000081526024810186905260048101918252875160448201528751600160a060020a0390931692632ef3accc9289928892829160640190602086019080838360005b83811015613c23578181015183820152602001613c0b565b50505050905090810190601f168015613c505780820380516001836020036101000a031916815260200191505b509350505050602060405180830381600087803b158015613c7057600080fd5b505af1158015613c84573d6000803e3d6000fd5b505050506040513d6020811015613c9a57600080fd5b50519050670de0b6b3a76400003a840201811115613cbb5760009150613704565b6001546040517fc51be90f00000000000000000000000000000000000000000000000000000000815260006004820181815260648301879052608060248401908152895160848501528951600160a060020a039095169463c51be90f948794938c938c938c93604481019160a49091019060208801908083838c5b83811015613d4e578181015183820152602001613d36565b50505050905090810190601f168015613d7b5780820380516001836020036101000a031916815260200191505b50838103825285518152855160209182019187019080838360005b83811015613dae578181015183820152602001613d96565b50505050905090810190601f168015613ddb5780820380516001836020036101000a031916815260200191505b5096505050505050506020604051808303818588803b158015613dfd57600080fd5b505af1158015613e11573d6000803e3d6000fd5b50505050506040513d6020811015613e2857600080fd5b505195945050505050565b60005b60208210613e58578251845260209384019390920191601f1990910190613e36565b50905182516020929092036101000a6000190180199091169116179052565b805161115a906002906020840190613f08565b828054600181600116156101000203166002900490600052602060002090601f016020900481019282601f10613ecb5782800160ff19823516178555613ef8565b82800160010185558215613ef8579182015b82811115613ef8578235825591602001919060010190613edd565b50613f04929150613f8d565b5090565b828054600181600116156101000203166002900490600052602060002090601f016020900481019282601f10613f4957805160ff1916838001178555613ef8565b82800160010185558215613ef8579182015b82811115613ef8578251825591602001919060010190613f5b565b604080518082019091526000808252602082015290565b6114cc91905b80821115613f045760008155600101613f93560086deee232683669bafe8ccba375970eac24e386ea61910ef16361d2bb63d6b4fa165627a7a723058208e57b4152fafcc2e8faef5d1a06150caf8c561cf3de64692ed09a426dd57862a0029",
  "source": "pragma solidity ^0.4.22;\r\n\r\nimport \"../implementations/Pausable.sol\";\r\nimport \"../interfaces/GameI.sol\";\r\nimport \"../libraries/strings.sol\";\r\nimport \"../../installed_contracts/zeppelin/contracts/math/SafeMath.sol\";\r\nimport \"../../installed_contracts/oraclize-api/contracts/usingOraclize.sol\";\r\n\r\n/** @title Contract that contains all the logic for a Game. */\r\ncontract BaseGame is usingOraclize, GameI, Pausable(false) {\r\n    using SafeMath for uint256;\r\n    using SafeMath for uint8;\r\n    using strings for *;\r\n\r\n    // Enums\r\n    enum MatchStatus { Ready, BetsAllowed, BetsNotAllowed, Finished }\r\n\r\n    // Structs\r\n    struct Match { \r\n        uint pairInitialPrice;\r\n        uint pairFinalPrice;\r\n        uint startTime; \r\n        uint endTime; \r\n        uint totalPool;\r\n        uint earningsByTicket;\r\n        bool winnerOption; \r\n        mapping(address=>uint) playerTotalTickets;\r\n        mapping(address=>bool) playerOption;\r\n        mapping(address=>bool) playerEarningsWithdrawn;\r\n        mapping(bool=>uint) optionTotalTickets;\r\n        mapping(bool=>uint) optionTotalPool;\r\n        bytes32 initalPriceQueryId;\r\n        bytes32 betPeriodQueryId;\r\n        bytes32 getFinalResultQueryId;\r\n        MatchStatus status; \r\n    }\r\n    \r\n    // Variables\r\n    string assetPair; \r\n    string assetPairAlias; \r\n    string description; \r\n    string resultsEndpoint;\r\n    uint currentMatchId;\r\n    uint8 betsDurationMinutes; \r\n    uint8 getResultsMinutes; \r\n    uint8 maxTicketsPerPlayer;\r\n    uint ticketPrice;\r\n    uint houseEdge;\r\n    uint32 oraclizeGasLimit;\r\n    uint[] matchesIds;\r\n\r\n    // Mappings\r\n    mapping(address=>uint[]) playerMatches;\r\n    mapping(uint=>Match) matches;\r\n    \r\n    // Events\r\n    event LogNewOraclizeQuery(uint indexed matchId, string description, uint timestamp);\r\n    event LogEarningsWithdrawn(string assetPair, uint matchId, address indexed player, uint amount, uint timestamp);\r\n    event LogMatchStarted(string assetPair, uint indexed matchId, uint startTime, uint initialPrice);\r\n    event LogBettingPeriodEnd(string assetPair, uint indexed matchId, uint totalPool, uint timestamp);\r\n\r\n    event LogTicketBought(\r\n        string assetPair, \r\n        uint indexed matchId, \r\n        address indexed player, \r\n        uint ticketsBought,\r\n        uint playerTotalTickets, \r\n        bool option, \r\n        uint optionTotalTickets,\r\n        uint timestamp\r\n    );\r\n\r\n    event LogMatchFinished(\r\n        string assetPair, \r\n        uint indexed matchId, \r\n        uint startTime, \r\n        uint endTime, \r\n        uint initialPrice, \r\n        uint endPrice, \r\n        uint earningsByTicket, \r\n        bool winnerOption\r\n    );\r\n\r\n    // Validates that the match status is \"Ready\".\r\n    modifier whenMatchReady() {\r\n        require(matches[currentMatchId].status == MatchStatus.Ready, \"Match status must be 'Ready'!\");\r\n        _;\r\n    }\r\n\r\n    // Validates that the match status is \"BetsAllowed\".\r\n    modifier whenBetsAllowed() {\r\n        require(matches[currentMatchId].status == MatchStatus.BetsAllowed, \"Match status must be 'BetsAllowed'!\");\r\n        _;\r\n    }\r\n\r\n        // Validates that the match status is \"BetsNotAllowed\".\r\n    modifier whenBetsNotAllowed() {\r\n        require(matches[currentMatchId].status == MatchStatus.BetsNotAllowed, \"Match status must be 'BetsNotAllowed'!\");\r\n        _;\r\n    }\r\n\r\n    // Validates that the match status is \"Finished\".\r\n    modifier whenMatchFinished() {\r\n        require(matches[currentMatchId].status == MatchStatus.Finished, \"Match status must be 'Finished'!\");\r\n        _;\r\n    }\r\n\r\n    // Validates that the calling address is the Oraclize.\r\n    modifier fromOraclize {\r\n        require(msg.sender == oraclize_cbAddress(), \"Sender must be the Oraclize address!\");\r\n        _;\r\n    }\r\n\r\n    // Validates that the match status is \"Finished\".\r\n    modifier resultEndpointWasSet() {\r\n        require(bytes(resultsEndpoint).length > 0, \"Results Endpoint must be set!\");\r\n        _;\r\n    }\r\n\r\n    // @dev Contract constructor.\r\n    constructor () public payable\r\n    {\r\n    }\r\n    \r\n    /** @dev Sets the information of the asset pair and sets the oraclize endpoint.\r\n    * @param _assetPair The assetPair of the game.\r\n    * @param _assetPairAlias Alias of the assetPair used for display.\r\n    * @param _description The description of the game used for display.\r\n    */\r\n    function setAssetPairInformation(string _assetPair, string _assetPairAlias, string _description) external fromOwner whenNotPaused {\r\n        require(bytes(_assetPair).length > 0, \"Asset pair cannot be an empty value!\");\r\n        require(bytes(_assetPairAlias).length > 0, \"Asset pair alias cannot be an empty value!\");\r\n        require(bytes(_description).length > 0, \"Description cannot be an empty value!\");\r\n\r\n        // WARNING: Just for development purposes, must be removed when deploying to production/testnet.\r\n        // Setting development oraclize resolver.\r\n        OAR = OraclizeAddrResolverI(0x6f485C8BF6fc43eA212E93BBF8ce046C7f1cb475);\r\n\r\n        assetPair = _assetPair;\r\n        assetPairAlias = _assetPairAlias;\r\n        description = _description;\r\n    \r\n        setApiEndpoint();\r\n    }\r\n\r\n     // @dev Sets the endpoint to be called by the Oraclize.\r\n    function setApiEndpoint() private fromOwner whenNotPaused {\r\n        // Setting result endpoint.\r\n        string memory endpointStart = \"json(https://api.kraken.com/0/public/Ticker?pair=\";\r\n        string memory endpointResult = \").result.\";\r\n        string memory endpointLast = \".c.0\";\r\n\r\n        resultsEndpoint = endpointStart.toSlice().concat(\r\n            assetPair.toSlice().concat(\r\n                endpointResult.toSlice().concat(\r\n                    assetPair.toSlice().concat(\r\n                        endpointLast.toSlice()\r\n                    ).toSlice()\r\n                ).toSlice()\r\n            ).toSlice()\r\n        );\r\n    }\r\n    \r\n    /** @dev Set game variables and start game.\r\n    * @param _betsDurationMinutes Specifies the time in minutes of the duration of the betting period.\r\n    * @param _getResultsMinutes Specifies the time in minutes to get the match result after the betting period.\r\n    * @param _maxTicketsPerPlayer Max number of tickets that a player can buy.\r\n    * @param _ticketPrice The price of a single ticket.\r\n    * @param _houseEdge House profit per ticket. \r\n    * @param _oraclizeGasLimit Gas amount to be used by the Oracle calls.\r\n    */\r\n    function setGameVariablesAndStart(\r\n        uint8 _betsDurationMinutes, \r\n        uint8 _getResultsMinutes,\r\n        uint8 _maxTicketsPerPlayer,\r\n        uint _ticketPrice, \r\n        uint _houseEdge,\r\n        uint32 _oraclizeGasLimit\r\n    ) external fromOwner whenNotPaused resultEndpointWasSet {\r\n\r\n        require(_betsDurationMinutes > 0, \"Bets duration time cannot be zero!\");\r\n        require(_getResultsMinutes > 0, \"Get results treshold cannot be zero!\");\r\n        require(_maxTicketsPerPlayer > 0, \"Max tickets per player cannot be zero!\");\r\n        require(_ticketPrice > 0, \"Ticket price cannot be zero!\");\r\n        require(_oraclizeGasLimit > 0, \"Match status cannot be zero!\");\r\n\r\n        betsDurationMinutes = _betsDurationMinutes;\r\n        getResultsMinutes = _getResultsMinutes;\r\n        maxTicketsPerPlayer = _maxTicketsPerPlayer;\r\n        ticketPrice = _ticketPrice;\r\n        houseEdge = _houseEdge;\r\n        oraclizeGasLimit = _oraclizeGasLimit;\r\n        \r\n        startNewMatch();\r\n    }\r\n\r\n    // @dev Initializes a new match and start it.\r\n    function startNewMatch() private whenNotPaused {\r\n        currentMatchId += 1;\r\n        matches[currentMatchId].status = MatchStatus.Ready;\r\n        matchesIds.push(currentMatchId);\r\n        callStartGameOraclize();\r\n    }\r\n\r\n    /** @dev Returns the game relevant information.\r\n    * @return _assetPair The assetPair of the game.\r\n    * @return _assetPairAlias  Alias of the assetPair used for display.\r\n    * @return _description The description of the game used for display.\r\n    * @return _ticketPrice The price of a single ticket.\r\n    * @return _currentMatchId Id of the current running match. \r\n    * @return _maxTicketsPerPlayer Max number of tickets that a player can buy.\r\n    * @return _betsDurationMinutes Specifies the time in minutes of the duration of the betting period.\r\n    * @return _getResultsMinutes  Specifies the time in minutes to get the match result after the betting period.\r\n    */\r\n    function getGameInfo() external view returns (\r\n        string  _assetPair, \r\n        string  _assetPairAlias, \r\n        string  _description, \r\n        uint  _ticketPrice, \r\n        uint  _currentMatchId,\r\n        uint8  _maxTicketsPerPlayer,\r\n        uint8 _betsDurationMinutes,\r\n        uint8 _getResultsMinutes\r\n    ) \r\n    {\r\n        return (\r\n            assetPair, \r\n            assetPairAlias, \r\n            description, \r\n            ticketPrice, \r\n            currentMatchId, \r\n            maxTicketsPerPlayer, \r\n            betsDurationMinutes, \r\n            getResultsMinutes\r\n        );\r\n    }\r\n\r\n    /** \r\n    * @dev Payable function to buy tickets.\r\n    * @param option Option to bet to.\r\n    */\r\n    function buyTickets(bool option) external payable  whenBetsAllowed whenNotPaused {\r\n        uint userTickets = matches[currentMatchId].playerTotalTickets[msg.sender];\r\n\r\n        require(msg.value >= ticketPrice, \"Amount must be equal or greater than a single ticket price.\");\r\n        require(userTickets < maxTicketsPerPlayer, \"User reached max amount of tickets per player allowed.\");\r\n\r\n        // Validating that the player hasn't bet to the rival contender.\r\n        if (userTickets > 0) {\r\n            require(matches[currentMatchId].playerOption[msg.sender] != !option, \"User cannot buy ticket for both options!\");\r\n        }\r\n        \r\n        uint ticketsToBuy = msg.value.div(ticketPrice);\r\n\r\n        // If the number of tickets that the user can buy is greater than maxTicketsPerPlayer then calculate and set the max number of tickets that this user has available.\r\n        if ((ticketsToBuy.add(userTickets)) > maxTicketsPerPlayer) {\r\n            ticketsToBuy = maxTicketsPerPlayer.sub(userTickets);\r\n        }\r\n\r\n        // Tickets to buy must be greater than zero.\r\n        assert(ticketsToBuy > 0);\r\n\r\n        // // Setting tickets.\r\n        matches[currentMatchId].playerTotalTickets[msg.sender] += ticketsToBuy;\r\n        matches[currentMatchId].optionTotalTickets[option] += ticketsToBuy;\r\n        matches[currentMatchId].playerOption[msg.sender] = option;\r\n\r\n        // // If user has residue transfer it back.\r\n        uint residue = msg.value.sub(ticketsToBuy.mul(ticketPrice));\r\n        if (residue > 0) {\r\n            msg.sender.transfer(residue);\r\n        }\r\n\r\n        if (userTickets < 1) {\r\n            playerMatches[msg.sender].push(currentMatchId);\r\n        }\r\n\r\n        emit LogTicketBought(\r\n            assetPair,\r\n            currentMatchId,\r\n            msg.sender, \r\n            ticketsToBuy,\r\n            matches[currentMatchId].playerTotalTickets[msg.sender], \r\n            option, \r\n            matches[currentMatchId].optionTotalTickets[option],\r\n            now\r\n        );\r\n    }\r\n \r\n    // @dev Sends oraclize query to start the match. \r\n    function callStartGameOraclize() private whenMatchReady whenNotPaused {\r\n        if (oraclize_getPrice(\"URL\", oraclizeGasLimit) > address(this).balance) {\r\n            emit LogNewOraclizeQuery(currentMatchId, \"Oraclize query was not sent due to insufficient balance, please add some ETH to cover for the query fee.\", now);\r\n        } else {\r\n            emit LogNewOraclizeQuery(currentMatchId, \"Oraclize query was sent to get pair initial price, waiting for answer...\", now);\r\n            matches[currentMatchId].initalPriceQueryId = oraclize_query(\"URL\", resultsEndpoint, oraclizeGasLimit);\r\n        }\r\n    }\r\n\r\n    // @dev Sends oraclize query to get timestamp and start betting period the match. \r\n    function callStartBetPeriodOraclize() private whenBetsAllowed whenNotPaused {\r\n        if (oraclize_getPrice(\"WolframAlpha\", oraclizeGasLimit) > address(this).balance) {\r\n            emit LogNewOraclizeQuery(currentMatchId, \"Oraclize query was not sent due to insufficient balance, please add some ETH to cover for the query fee.\", now);\r\n        } else {\r\n            emit LogNewOraclizeQuery(currentMatchId, \"Oraclize query was sent to start betting period, waiting for answer...\", now);\r\n            matches[currentMatchId].betPeriodQueryId = oraclize_query(betsDurationMinutes * 60, \"WolframAlpha\", \"timestamp\", oraclizeGasLimit);\r\n        }\r\n    }\r\n\r\n    // @dev Sends oraclize query to get match final price and end match.\r\n    function callResultsOraclize() private whenBetsNotAllowed whenNotPaused {\r\n        if (oraclize_getPrice(\"URL\", oraclizeGasLimit) > address(this).balance) {\r\n            emit LogNewOraclizeQuery(currentMatchId, \"Oraclize query was not sent due to insufficient balance, please add some ETH to cover for the query fee.\", now);\r\n        } else {\r\n            emit LogNewOraclizeQuery(currentMatchId, \"Oraclize query was sent to get pair final price, waiting for answer...\", now);\r\n            matches[currentMatchId].getFinalResultQueryId = oraclize_query(getResultsMinutes * 60, \"URL\", resultsEndpoint, oraclizeGasLimit);\r\n        }\r\n    }\r\n\r\n    /** \r\n    * @dev Oraclize callback action\r\n    * @param queryId Id of the executed query.\r\n    * @param result Callback result.\r\n    */\r\n    function __callback(bytes32 queryId, string result) public fromOraclize whenNotPaused {\r\n        if (matches[currentMatchId].initalPriceQueryId == queryId) {\r\n            // Set match initial information.\r\n            matches[currentMatchId].pairInitialPrice = parseInt(result, 5);\r\n            matches[currentMatchId].status = MatchStatus.BetsAllowed;\r\n            matches[currentMatchId].startTime = now;\r\n\r\n            emit LogMatchStarted(assetPair, currentMatchId, matches[currentMatchId].startTime, matches[currentMatchId].pairInitialPrice);\r\n            callStartBetPeriodOraclize();\r\n        }\r\n        else if (matches[currentMatchId].betPeriodQueryId == queryId) {\r\n            // Validates that there are at least one ticket per option, otherwise restart betting period.\r\n            if (matches[currentMatchId].optionTotalTickets[true] < 1 || matches[currentMatchId].optionTotalTickets[false] < 1) {\r\n                callStartBetPeriodOraclize();\r\n            }\r\n            else {\r\n                matches[currentMatchId].status = MatchStatus.BetsNotAllowed;\r\n\r\n                // Calculating total pools.\r\n                matches[currentMatchId].optionTotalPool[false] = matches[currentMatchId].optionTotalTickets[false].mul(ticketPrice);\r\n                matches[currentMatchId].optionTotalPool[true] = matches[currentMatchId].optionTotalTickets[true].mul(ticketPrice);\r\n                matches[currentMatchId].totalPool = matches[currentMatchId].optionTotalPool[false].add(matches[currentMatchId].optionTotalPool[true]);\r\n                \r\n                emit LogBettingPeriodEnd(assetPair, currentMatchId, matches[currentMatchId].totalPool, now);\r\n                callResultsOraclize();\r\n            }\r\n        }\r\n        else if (matches[currentMatchId].getFinalResultQueryId == queryId) {\r\n            determineWinner(parseInt(result, 5));\r\n        }\r\n    }\r\n\r\n    /** \r\n    * @dev Determines the winner based on the Oraclize query.\r\n    * @param finalPrice Pair final price.\r\n    */\r\n    function determineWinner(uint finalPrice) private whenBetsNotAllowed whenNotPaused {\r\n        // Set match status \"Finished\" and set finalPrice.\r\n        matches[currentMatchId].status = MatchStatus.Finished;\r\n        matches[currentMatchId].pairFinalPrice = finalPrice;\r\n\r\n        // Set winner based on oraclize result.\r\n        matches[currentMatchId].winnerOption = (matches[currentMatchId].pairFinalPrice > matches[currentMatchId].pairInitialPrice);\r\n       \r\n        CalculateEarnings(matches[currentMatchId].winnerOption);\r\n    }\r\n\r\n    // @dev Function called by a player to withdraw all pending withdrawals.\r\n    function withdrawEarnings() external whenNotPaused {\r\n        uint totalEarnings;         \r\n        uint[] memory playerPastMatchesIds = playerMatches[msg.sender];\r\n\r\n        require(playerPastMatchesIds.length > 0, \"Player not found!\");\r\n\r\n        for (uint8 i = 0; i < playerPastMatchesIds.length; i++) {\r\n            Match storage pastMatch = matches[playerPastMatchesIds[i]];\r\n\r\n            if (pastMatch.status == MatchStatus.Finished){\r\n                if (pastMatch.playerEarningsWithdrawn[msg.sender] == false) {\r\n                    if (pastMatch.playerOption[msg.sender] == pastMatch.winnerOption) {\r\n                        uint earnings = pastMatch.earningsByTicket.mul(pastMatch.playerTotalTickets[msg.sender]);\r\n                        uint ticketsBought = ticketPrice.mul(pastMatch.playerTotalTickets[msg.sender]);\r\n\r\n                        uint totalAmount = earnings.add(ticketsBought);\r\n                        totalEarnings += totalAmount;\r\n\r\n                        require(totalEarnings > 0, \"Amount to withdraw must be greater than zero.\");\r\n\r\n                        matches[playerPastMatchesIds[i]].playerEarningsWithdrawn[msg.sender] = true;\r\n                        msg.sender.transfer(totalEarnings);\r\n                        \r\n                        emit LogEarningsWithdrawn(assetPair, playerPastMatchesIds[i], msg.sender, totalEarnings, now);\r\n                    }\r\n                } \r\n            }\r\n        }\r\n    }\r\n\r\n    // @dev Set the winner, calculates the earnings and starts a new match.\r\n    function CalculateEarnings(bool winnerOption) private whenNotPaused whenMatchFinished {\r\n        // Calculate total earnings and earnings by ticket.\r\n        uint houseEarnings = houseEdge.mul(matches[currentMatchId].optionTotalTickets[!winnerOption]); \r\n        uint finalEarnings = matches[currentMatchId].optionTotalPool[!winnerOption].sub(houseEarnings);\r\n        uint ticketEarnings = finalEarnings.div(matches[currentMatchId].optionTotalTickets[winnerOption]);\r\n        \r\n        matches[currentMatchId].earningsByTicket = ticketEarnings;\r\n\r\n        // Emit match finished event.\r\n        emit LogMatchFinished(\r\n            assetPair,\r\n            currentMatchId, \r\n            matches[currentMatchId].startTime, \r\n            now, \r\n            matches[currentMatchId].pairInitialPrice, \r\n            matches[currentMatchId].pairFinalPrice, \r\n            matches[currentMatchId].earningsByTicket,\r\n            matches[currentMatchId].winnerOption\r\n        );\r\n\r\n        startNewMatch();\r\n    }\r\n\r\n    // @dev  Allows the owner to destruct the contrat in case of an emergency.\r\n    function destructContract() external fromOwner {\r\n        selfdestruct(this.getOwner());\r\n    }   \r\n}",
  "sourcePath": "C:\\Data\\Junior\\Consensys Academy\\Final Project\\EtherBinary\\contracts\\implementations\\BaseGame.sol",
  "compiler": {
    "name": "solc",
    "version": "0.4.24+commit.e67f0147.Emscripten.clang"
  },
  "schemaVersion": "2.0.1",
  "updatedAt": "2018-08-28T04:16:45.225Z"
}