{
  "contractName": "GameManager",
  "abi": [
    {
      "constant": true,
      "inputs": [
        {
          "name": "",
          "type": "uint256"
        }
      ],
      "name": "oldGameFactories",
      "outputs": [
        {
          "name": "",
          "type": "address"
        }
      ],
      "payable": false,
      "stateMutability": "view",
      "type": "function"
    },
    {
      "constant": true,
      "inputs": [],
      "name": "currentGameFactory",
      "outputs": [
        {
          "name": "",
          "type": "address"
        }
      ],
      "payable": false,
      "stateMutability": "view",
      "type": "function"
    },
    {
      "constant": false,
      "inputs": [
        {
          "name": "newOwner",
          "type": "address"
        }
      ],
      "name": "setOwner",
      "outputs": [
        {
          "name": "success",
          "type": "bool"
        }
      ],
      "payable": false,
      "stateMutability": "nonpayable",
      "type": "function"
    },
    {
      "constant": false,
      "inputs": [
        {
          "name": "newState",
          "type": "bool"
        }
      ],
      "name": "setPaused",
      "outputs": [
        {
          "name": "success",
          "type": "bool"
        }
      ],
      "payable": false,
      "stateMutability": "nonpayable",
      "type": "function"
    },
    {
      "constant": true,
      "inputs": [],
      "name": "getOwner",
      "outputs": [
        {
          "name": "owner",
          "type": "address"
        }
      ],
      "payable": false,
      "stateMutability": "view",
      "type": "function"
    },
    {
      "constant": true,
      "inputs": [],
      "name": "isPaused",
      "outputs": [
        {
          "name": "isIndeed",
          "type": "bool"
        }
      ],
      "payable": false,
      "stateMutability": "view",
      "type": "function"
    },
    {
      "inputs": [
        {
          "name": "gameFactoryAddress",
          "type": "address"
        }
      ],
      "payable": false,
      "stateMutability": "nonpayable",
      "type": "constructor"
    },
    {
      "anonymous": false,
      "inputs": [
        {
          "indexed": true,
          "name": "sender",
          "type": "address"
        },
        {
          "indexed": true,
          "name": "newPausedState",
          "type": "bool"
        }
      ],
      "name": "LogPausedSet",
      "type": "event"
    },
    {
      "anonymous": false,
      "inputs": [
        {
          "indexed": true,
          "name": "previousOwner",
          "type": "address"
        },
        {
          "indexed": true,
          "name": "newOwner",
          "type": "address"
        }
      ],
      "name": "LogOwnerSet",
      "type": "event"
    },
    {
      "constant": true,
      "inputs": [],
      "name": "getDeployedAssetsCount",
      "outputs": [
        {
          "name": "",
          "type": "uint256"
        }
      ],
      "payable": false,
      "stateMutability": "view",
      "type": "function"
    },
    {
      "constant": true,
      "inputs": [
        {
          "name": "index",
          "type": "uint8"
        }
      ],
      "name": "getDeployedAssetContractAt",
      "outputs": [
        {
          "name": "",
          "type": "string"
        },
        {
          "name": "",
          "type": "address"
        }
      ],
      "payable": false,
      "stateMutability": "view",
      "type": "function"
    },
    {
      "constant": false,
      "inputs": [
        {
          "name": "assetPair",
          "type": "string"
        },
        {
          "name": "assetPairAlias",
          "type": "string"
        },
        {
          "name": "description",
          "type": "string"
        }
      ],
      "name": "createNewGame",
      "outputs": [
        {
          "name": "",
          "type": "address"
        }
      ],
      "payable": true,
      "stateMutability": "payable",
      "type": "function"
    },
    {
      "constant": false,
      "inputs": [
        {
          "name": "newGameFactoryAddress",
          "type": "address"
        }
      ],
      "name": "setGameFactory",
      "outputs": [],
      "payable": false,
      "stateMutability": "nonpayable",
      "type": "function"
    },
    {
      "constant": true,
      "inputs": [],
      "name": "getCurrentFactory",
      "outputs": [
        {
          "name": "",
          "type": "address"
        }
      ],
      "payable": false,
      "stateMutability": "view",
      "type": "function"
    }
  ],
  "bytecode": "0x608060405234801561001057600080fd5b50604051602080610d5183398101604052516000805460a060020a60ff0219600160a060020a031991821633171690915560018054600160a060020a0390931692909116919091179055610ce8806100696000396000f3006080604052600436106100ae5763ffffffff7c010000000000000000000000000000000000000000000000000000000060003504166305a6131e81146100b35780630d545681146100e75780630f0bcba01461019357806313af4035146101a857806316c38b3c146101dd5780632f329d47146101f7578063893d20e8146102bf5780638a664e03146102d4578063b187bd26146102e9578063e0427461146102fe578063ea4fcec114610325575b600080fd5b3480156100bf57600080fd5b506100cb600435610348565b60408051600160a060020a039092168252519081900360200190f35b3480156100f357600080fd5b5061010260ff60043516610370565b604051808060200183600160a060020a0316600160a060020a03168152602001828103825284818151815260200191508051906020019080838360005b8381101561015757818101518382015260200161013f565b50505050905090810190601f1680156101845780820380516001836020036101000a031916815260200191505b50935050505060405180910390f35b34801561019f57600080fd5b506100cb6104b6565b3480156101b457600080fd5b506101c9600160a060020a03600435166104c5565b604080519115158252519081900360200190f35b3480156101e957600080fd5b506101c9600435151561056d565b6040805160206004803580820135601f81018490048402850184019095528484526100cb94369492936024939284019190819084018382808284375050604080516020601f89358b018035918201839004830284018301909452808352979a99988101979196509182019450925082915084018382808284375050604080516020601f89358b018035918201839004830284018301909452808352979a9998810197919650918201945092508291508401838280828437509497506106289650505050505050565b3480156102cb57600080fd5b506100cb610aa3565b3480156102e057600080fd5b506100cb610ab3565b3480156102f557600080fd5b506101c9610ac2565b34801561030a57600080fd5b50610313610ad2565b60408051918252519081900360200190f35b34801561033157600080fd5b50610346600160a060020a0360043516610ad8565b005b600280548290811061035657fe5b600091825260209091200154600160a060020a0316905081565b6060600060038360ff1681548110151561038657fe5b90600052602060002001600460038560ff168154811015156103a457fe5b9060005260206000200160405180828054600181600116156101000203166002900480156104095780601f106103e7576101008083540402835291820191610409565b820191906000526020600020905b8154815290600101906020018083116103f5575b50509283525050604080516020928190038301812054845460026101006001831615026000190190911604601f8101859004850283018501909352828252600160a060020a031692909184918301828280156104a65780601f1061047b576101008083540402835291602001916104a6565b820191906000526020600020905b81548152906001019060200180831161048957829003601f168201915b5050505050915091509150915091565b600154600160a060020a031681565b60008054600160a060020a031633146104dd57600080fd5b600054600160a060020a03838116911614156104f857600080fd5b600160a060020a038216151561050d57600080fd5b6000805473ffffffffffffffffffffffffffffffffffffffff1916600160a060020a0384811691821780845560405192939116917fa1d2149652d81eb35c360c115fc7ac594124cb1ea8a5a33e9a7f5768c62869fb9190a3506001919050565b60008054600160a060020a0316331461058557600080fd5b60005460ff60a060020a90910416151582151514156105c8576040805160e560020a62461bcd028152602060048201526000602482015290519081900360640190fd5b6000805474ff0000000000000000000000000000000000000000191660a060020a841515908102919091178255604051909133917fae0f86d9801b0bd39a2ce25d9fd1f202f2fd22e80150be4a99adb0275a635d6c9190a3506001919050565b60008054600160a060020a0316331461064057600080fd5b60005460a060020a900460ff161561067c576040805160e560020a62461bcd028152602060048201526000602482015290519081900360640190fd5b6000600160a060020a03166004856040518082805190602001908083835b602083106106b95780518252601f19909201916020918201910161069a565b51815160209384036101000a6000190180199092169116179052920194855250604051938490030190922054600160a060020a03169290921491506108029050576005846040518082805190602001908083835b6020831061072c5780518252601f19909201916020918201910161070d565b51815160209384036101000a600019018019909216911617905292019485525060405193849003810184208851909460049450899350918291908401908083835b6020831061078c5780518252601f19909201916020918201910161076d565b51815160001960209485036101000a01908116901991909116179052920194855250604051938490038101909320548454600181018655600095865293909420909201805473ffffffffffffffffffffffffffffffffffffffff1916600160a060020a0390941693909317909255506108499050565b60038054600181018083556000929092528551610846917fc2575a0e9e593c00f959f8c92f12db2869c3395a3b0502d05e2516446f71f85b01906020880190610c24565b50505b6001546040517f2f329d47000000000000000000000000000000000000000000000000000000008152606060048201908152865160648301528651600160a060020a0390931692632f329d479234928992899289929182916024810191604482019160840190602089019080838360005b838110156108d25781810151838201526020016108ba565b50505050905090810190601f1680156108ff5780820380516001836020036101000a031916815260200191505b50848103835286518152865160209182019188019080838360005b8381101561093257818101518382015260200161091a565b50505050905090810190601f16801561095f5780820380516001836020036101000a031916815260200191505b50848103825285518152855160209182019187019080838360005b8381101561099257818101518382015260200161097a565b50505050905090810190601f1680156109bf5780820380516001836020036101000a031916815260200191505b5096505050505050506020604051808303818588803b1580156109e157600080fd5b505af11580156109f5573d6000803e3d6000fd5b50505050506040513d6020811015610a0c57600080fd5b505160405185516004918791819060208401908083835b60208310610a425780518252601f199092019160209182019101610a23565b51815160209384036101000a60001901801990921691161790529201948552506040519384900301909220805473ffffffffffffffffffffffffffffffffffffffff1916600160a060020a0394909416939093179092555090949350505050565b600054600160a060020a03165b90565b600154600160a060020a031690565b60005460a060020a900460ff1690565b60035490565b600054600160a060020a03163314610aef57600080fd5b60005460a060020a900460ff161515610b2c576040805160e560020a62461bcd028152602060048201526000602482015290519081900360640190fd5b600154600160a060020a0382811691161415610bb8576040805160e560020a62461bcd02815260206004820152602481018290527f4e65772067616d6520666163746f72792061646472657373206d75737420626560448201527f20646966666572656e74207468616e2063757272656e7420616464726573732e606482015290519081900360840190fd5b600180546002805480840182556000919091527f405787fa12a823e0f2b7631cc41b3ba8828b3321ca811111fa75cd3aa3bb5ace018054600160a060020a0392831673ffffffffffffffffffffffffffffffffffffffff19918216179091558254169216919091179055565b828054600181600116156101000203166002900490600052602060002090601f016020900481019282601f10610c6557805160ff1916838001178555610c92565b82800160010185558215610c92579182015b82811115610c92578251825591602001919060010190610c77565b50610c9e929150610ca2565b5090565b610ab091905b80821115610c9e5760008155600101610ca85600a165627a7a7230582093f11a86ce974e054d951ad3dc21163097d19585410717f2c0001ee3578ada300029",
  "source": "pragma solidity ^0.4.22;\r\n\r\nimport \"../implementations/Pausable.sol\";\r\nimport \"../interfaces/GameI.sol\";\r\nimport \"../interfaces/GameFactoryI.sol\";\r\nimport \"../../installed_contracts/zeppelin/contracts/math/SafeMath.sol\";\r\n\r\n/** @title Game manager contract that serves as a registry. */\r\ncontract GameManager is Pausable(false) {\r\n    using SafeMath for uint256;\r\n\r\n    // Variables\r\n    address public currentGameFactory;\r\n    address[] public oldGameFactories;\r\n    string[] deployedAssets;\r\n\r\n    // Mappings\r\n    mapping(string=>address) currentAssetContract;\r\n    mapping(string=>address[]) oldAssetContracts;\r\n    mapping(address=>address[]) playerGames;\r\n\r\n    /**\r\n    * @dev Contract constructor.\r\n    * @param gameFactoryAddress Address of the game factory.\r\n    */\r\n    constructor (address gameFactoryAddress) public\r\n    {\r\n        currentGameFactory = gameFactoryAddress;\r\n    }\r\n\r\n    /**\r\n    * @dev Returns the number of deployed games.\r\n    * @return Amount of current games.\r\n    */\r\n    function getDeployedAssetsCount() external view returns (uint) {\r\n        return deployedAssets.length;\r\n    }\r\n\r\n    /**\r\n    * @dev Returns the information of a game located at an specific index.\r\n    * @param index Index of the game to look for.\r\n    * @return Asset pair of the game.\r\n    * @return Address of the game's smart contract.\r\n    */\r\n    function getDeployedAssetContractAt(uint8 index) external view returns (string, address) {\r\n        return (deployedAssets[index], currentAssetContract[deployedAssets[index]]);\r\n    }\r\n\r\n    /** \r\n    * @dev Function used to create a new game based on the provided parameters.\r\n    * @param assetPair The assetPair of the game.\r\n    * @param assetPairAlias Alias of the assetPair used for display.\r\n    * @param description The description of the game to be desplayed.\r\n    */\r\n    function createNewGame(string assetPair, string assetPairAlias, string description) public payable fromOwner whenNotPaused returns (address) \r\n    {\r\n        if (currentAssetContract[assetPair] != address(0)) {\r\n            // Saving old contract.\r\n            oldAssetContracts[assetPair].push(currentAssetContract[assetPair]);\r\n        }\r\n        else {\r\n            deployedAssets.push(assetPair);\r\n        }\r\n\r\n        // Creating new contract for this asset and setting current variable.\r\n        currentAssetContract[assetPair] = GameFactoryI(currentGameFactory).createNewGame.value(msg.value)(\r\n            assetPair, \r\n            assetPairAlias, \r\n            description\r\n        );\r\n    }\r\n\r\n    /**\r\n    * @dev Function used to register a new game factory.\r\n    * @param newGameFactoryAddress Address of the new game factory.\r\n    */\r\n    function setGameFactory(address newGameFactoryAddress) public fromOwner whenPaused\r\n    {\r\n        require(newGameFactoryAddress != currentGameFactory, \"New game factory address must be different than current address.\");\r\n\r\n        oldGameFactories.push(currentGameFactory);\r\n        currentGameFactory = newGameFactoryAddress;\r\n    }\r\n\r\n    /**\r\n    * @dev Function used to return the current game factory.\r\n    * @return Address of the current game factory.\r\n    */\r\n    function getCurrentFactory() public view returns (address)\r\n    {\r\n        return currentGameFactory;\r\n    }\r\n}",
  "sourcePath": "C:\\Data\\Junior\\Development\\EtherBinary\\EtherBinary\\contracts\\logic\\GameManager.sol",
  "compiler": {
    "name": "solc",
    "version": "0.4.24+commit.e67f0147.Emscripten.clang"
  },
  "schemaVersion": "2.0.1",
  "updatedAt": "2018-08-28T10:12:10.150Z"
}