{
  "contractName": "GameManager",
  "abi": [
    {
      "constant": true,
      "inputs": [
        {
          "name": "",
          "type": "uint256"
        }
      ],
      "name": "oldGameFactories",
      "outputs": [
        {
          "name": "",
          "type": "address"
        }
      ],
      "payable": false,
      "stateMutability": "view",
      "type": "function"
    },
    {
      "constant": true,
      "inputs": [],
      "name": "currentGameFactory",
      "outputs": [
        {
          "name": "",
          "type": "address"
        }
      ],
      "payable": false,
      "stateMutability": "view",
      "type": "function"
    },
    {
      "constant": false,
      "inputs": [
        {
          "name": "newOwner",
          "type": "address"
        }
      ],
      "name": "setOwner",
      "outputs": [
        {
          "name": "success",
          "type": "bool"
        }
      ],
      "payable": false,
      "stateMutability": "nonpayable",
      "type": "function"
    },
    {
      "constant": false,
      "inputs": [
        {
          "name": "newState",
          "type": "bool"
        }
      ],
      "name": "setPaused",
      "outputs": [
        {
          "name": "success",
          "type": "bool"
        }
      ],
      "payable": false,
      "stateMutability": "nonpayable",
      "type": "function"
    },
    {
      "constant": true,
      "inputs": [],
      "name": "getOwner",
      "outputs": [
        {
          "name": "owner",
          "type": "address"
        }
      ],
      "payable": false,
      "stateMutability": "view",
      "type": "function"
    },
    {
      "constant": true,
      "inputs": [],
      "name": "isPaused",
      "outputs": [
        {
          "name": "isIndeed",
          "type": "bool"
        }
      ],
      "payable": false,
      "stateMutability": "view",
      "type": "function"
    },
    {
      "inputs": [
        {
          "name": "gameFactoryAddress",
          "type": "address"
        }
      ],
      "payable": false,
      "stateMutability": "nonpayable",
      "type": "constructor"
    },
    {
      "anonymous": false,
      "inputs": [
        {
          "indexed": true,
          "name": "sender",
          "type": "address"
        },
        {
          "indexed": true,
          "name": "newPausedState",
          "type": "bool"
        }
      ],
      "name": "LogPausedSet",
      "type": "event"
    },
    {
      "anonymous": false,
      "inputs": [
        {
          "indexed": true,
          "name": "previousOwner",
          "type": "address"
        },
        {
          "indexed": true,
          "name": "newOwner",
          "type": "address"
        }
      ],
      "name": "LogOwnerSet",
      "type": "event"
    },
    {
      "constant": true,
      "inputs": [],
      "name": "getDeployedAssetsCount",
      "outputs": [
        {
          "name": "",
          "type": "uint256"
        }
      ],
      "payable": false,
      "stateMutability": "view",
      "type": "function"
    },
    {
      "constant": true,
      "inputs": [
        {
          "name": "index",
          "type": "uint8"
        }
      ],
      "name": "getDeployedAssetContractAt",
      "outputs": [
        {
          "name": "",
          "type": "string"
        },
        {
          "name": "",
          "type": "address"
        }
      ],
      "payable": false,
      "stateMutability": "view",
      "type": "function"
    },
    {
      "constant": false,
      "inputs": [
        {
          "name": "assetPair",
          "type": "string"
        },
        {
          "name": "assetPairAlias",
          "type": "string"
        },
        {
          "name": "description",
          "type": "string"
        }
      ],
      "name": "createNewGame",
      "outputs": [
        {
          "name": "",
          "type": "address"
        }
      ],
      "payable": true,
      "stateMutability": "payable",
      "type": "function"
    },
    {
      "constant": false,
      "inputs": [
        {
          "name": "newGameFactoryAddress",
          "type": "address"
        }
      ],
      "name": "setGameFactory",
      "outputs": [],
      "payable": false,
      "stateMutability": "nonpayable",
      "type": "function"
    }
  ],
  "bytecode": "0x608060405234801561001057600080fd5b50604051602080610d2283398101604052516000805460a060020a60ff0219600160a060020a031991821633171690915560018054600160a060020a0390931692909116919091179055610cb9806100696000396000f3006080604052600436106100a35763ffffffff7c010000000000000000000000000000000000000000000000000000000060003504166305a6131e81146100a85780630d545681146100dc5780630f0bcba01461018857806313af40351461019d57806316c38b3c146101d25780632f329d47146101ec578063893d20e8146102b4578063b187bd26146102c9578063e0427461146102de578063ea4fcec114610305575b600080fd5b3480156100b457600080fd5b506100c0600435610328565b60408051600160a060020a039092168252519081900360200190f35b3480156100e857600080fd5b506100f760ff60043516610350565b604051808060200183600160a060020a0316600160a060020a03168152602001828103825284818151815260200191508051906020019080838360005b8381101561014c578181015183820152602001610134565b50505050905090810190601f1680156101795780820380516001836020036101000a031916815260200191505b50935050505060405180910390f35b34801561019457600080fd5b506100c0610496565b3480156101a957600080fd5b506101be600160a060020a03600435166104a5565b604080519115158252519081900360200190f35b3480156101de57600080fd5b506101be600435151561054d565b6040805160206004803580820135601f81018490048402850184019095528484526100c094369492936024939284019190819084018382808284375050604080516020601f89358b018035918201839004830284018301909452808352979a99988101979196509182019450925082915084018382808284375050604080516020601f89358b018035918201839004830284018301909452808352979a9998810197919650918201945092508291508401838280828437509497506106089650505050505050565b3480156102c057600080fd5b506100c0610a83565b3480156102d557600080fd5b506101be610a93565b3480156102ea57600080fd5b506102f3610aa3565b60408051918252519081900360200190f35b34801561031157600080fd5b50610326600160a060020a0360043516610aa9565b005b600280548290811061033657fe5b600091825260209091200154600160a060020a0316905081565b6060600060038360ff1681548110151561036657fe5b90600052602060002001600460038560ff1681548110151561038457fe5b9060005260206000200160405180828054600181600116156101000203166002900480156103e95780601f106103c75761010080835404028352918201916103e9565b820191906000526020600020905b8154815290600101906020018083116103d5575b50509283525050604080516020928190038301812054845460026101006001831615026000190190911604601f8101859004850283018501909352828252600160a060020a031692909184918301828280156104865780601f1061045b57610100808354040283529160200191610486565b820191906000526020600020905b81548152906001019060200180831161046957829003601f168201915b5050505050915091509150915091565b600154600160a060020a031681565b60008054600160a060020a031633146104bd57600080fd5b600054600160a060020a03838116911614156104d857600080fd5b600160a060020a03821615156104ed57600080fd5b6000805473ffffffffffffffffffffffffffffffffffffffff1916600160a060020a0384811691821780845560405192939116917fa1d2149652d81eb35c360c115fc7ac594124cb1ea8a5a33e9a7f5768c62869fb9190a3506001919050565b60008054600160a060020a0316331461056557600080fd5b60005460ff60a060020a90910416151582151514156105a8576040805160e560020a62461bcd028152602060048201526000602482015290519081900360640190fd5b6000805474ff0000000000000000000000000000000000000000191660a060020a841515908102919091178255604051909133917fae0f86d9801b0bd39a2ce25d9fd1f202f2fd22e80150be4a99adb0275a635d6c9190a3506001919050565b60008054600160a060020a0316331461062057600080fd5b60005460a060020a900460ff161561065c576040805160e560020a62461bcd028152602060048201526000602482015290519081900360640190fd5b6000600160a060020a03166004856040518082805190602001908083835b602083106106995780518252601f19909201916020918201910161067a565b51815160209384036101000a6000190180199092169116179052920194855250604051938490030190922054600160a060020a03169290921491506107e29050576005846040518082805190602001908083835b6020831061070c5780518252601f1990920191602091820191016106ed565b51815160209384036101000a600019018019909216911617905292019485525060405193849003810184208851909460049450899350918291908401908083835b6020831061076c5780518252601f19909201916020918201910161074d565b51815160001960209485036101000a01908116901991909116179052920194855250604051938490038101909320548454600181018655600095865293909420909201805473ffffffffffffffffffffffffffffffffffffffff1916600160a060020a0390941693909317909255506108299050565b60038054600181018083556000929092528551610826917fc2575a0e9e593c00f959f8c92f12db2869c3395a3b0502d05e2516446f71f85b01906020880190610bf5565b50505b6001546040517f2f329d47000000000000000000000000000000000000000000000000000000008152606060048201908152865160648301528651600160a060020a0390931692632f329d479234928992899289929182916024810191604482019160840190602089019080838360005b838110156108b257818101518382015260200161089a565b50505050905090810190601f1680156108df5780820380516001836020036101000a031916815260200191505b50848103835286518152865160209182019188019080838360005b838110156109125781810151838201526020016108fa565b50505050905090810190601f16801561093f5780820380516001836020036101000a031916815260200191505b50848103825285518152855160209182019187019080838360005b8381101561097257818101518382015260200161095a565b50505050905090810190601f16801561099f5780820380516001836020036101000a031916815260200191505b5096505050505050506020604051808303818588803b1580156109c157600080fd5b505af11580156109d5573d6000803e3d6000fd5b50505050506040513d60208110156109ec57600080fd5b505160405185516004918791819060208401908083835b60208310610a225780518252601f199092019160209182019101610a03565b51815160209384036101000a60001901801990921691161790529201948552506040519384900301909220805473ffffffffffffffffffffffffffffffffffffffff1916600160a060020a0394909416939093179092555090949350505050565b600054600160a060020a03165b90565b60005460a060020a900460ff1690565b60035490565b600054600160a060020a03163314610ac057600080fd5b60005460a060020a900460ff161515610afd576040805160e560020a62461bcd028152602060048201526000602482015290519081900360640190fd5b600154600160a060020a0382811691161415610b89576040805160e560020a62461bcd02815260206004820152602481018290527f4e65772067616d6520666163746f72792061646472657373206d75737420626560448201527f20646966666572656e74207468616e2063757272656e7420616464726573732e606482015290519081900360840190fd5b600180546002805480840182556000919091527f405787fa12a823e0f2b7631cc41b3ba8828b3321ca811111fa75cd3aa3bb5ace018054600160a060020a0392831673ffffffffffffffffffffffffffffffffffffffff19918216179091558254169216919091179055565b828054600181600116156101000203166002900490600052602060002090601f016020900481019282601f10610c3657805160ff1916838001178555610c63565b82800160010185558215610c63579182015b82811115610c63578251825591602001919060010190610c48565b50610c6f929150610c73565b5090565b610a9091905b80821115610c6f5760008155600101610c795600a165627a7a72305820a9a62ce397067bbb4a48f5cb767f3b165b54f3f562507060ab223bd7e580cf300029",
  "source": "pragma solidity ^0.4.22;\r\n\r\nimport \"../implementations/Pausable.sol\";\r\nimport \"../interfaces/GameI.sol\";\r\nimport \"../interfaces/GameFactoryI.sol\";\r\nimport \"../../installed_contracts/zeppelin/contracts/math/SafeMath.sol\";\r\n\r\n/** @title Game manager contract that serves as a registry. */\r\ncontract GameManager is Pausable(false) {\r\n    using SafeMath for uint256;\r\n\r\n    // Variables\r\n    address public currentGameFactory;\r\n    address[] public oldGameFactories;\r\n    string[] deployedAssets;\r\n\r\n    // Mappings\r\n    mapping(string=>address) currentAssetContract;\r\n    mapping(string=>address[]) oldAssetContracts;\r\n    mapping(address=>address[]) playerGames;\r\n\r\n    /**\r\n    * @dev Contract constructor.\r\n    * @param gameFactoryAddress Address of the game factory.\r\n    */\r\n    constructor (address gameFactoryAddress) public\r\n    {\r\n        currentGameFactory = gameFactoryAddress;\r\n    }\r\n\r\n    /**\r\n    * @dev Returns the number of deployed games.\r\n    * @return Amount of current games.\r\n    */\r\n    function getDeployedAssetsCount() external view returns (uint) {\r\n        return deployedAssets.length;\r\n    }\r\n\r\n    /**\r\n    * @dev Returns the information of a game located at an specific index.\r\n    * @param index Index of the game to look for.\r\n    * @return Asset pair of the game.\r\n    * @return Address of the game's smart contract.\r\n    */\r\n    function getDeployedAssetContractAt(uint8 index) external view returns (string, address) {\r\n        return (deployedAssets[index], currentAssetContract[deployedAssets[index]]);\r\n    }\r\n\r\n    /** \r\n    * @dev Function used to create a new game based on the provided parameters.\r\n    * @param assetPair The assetPair of the game.\r\n    * @param assetPairAlias Alias of the assetPair used for display.\r\n    * @param description The description of the game to be desplayed.\r\n    */\r\n    function createNewGame(string assetPair, string assetPairAlias, string description) public payable fromOwner whenNotPaused returns (address) \r\n    {\r\n        if (currentAssetContract[assetPair] != address(0)) {\r\n            // Saving old contract.\r\n            oldAssetContracts[assetPair].push(currentAssetContract[assetPair]);\r\n        }\r\n        else {\r\n            deployedAssets.push(assetPair);\r\n        }\r\n\r\n        // Creating new contract for this asset and setting current variable.\r\n        currentAssetContract[assetPair] = GameFactoryI(currentGameFactory).createNewGame.value(msg.value)(\r\n            assetPair, \r\n            assetPairAlias, \r\n            description\r\n        );\r\n    }\r\n\r\n    /**\r\n    * @dev Function used to register a new game factory.\r\n    * @param newGameFactoryAddress Address of the new game factory.\r\n    */\r\n    function setGameFactory(address newGameFactoryAddress) public fromOwner whenPaused\r\n    {\r\n        require(newGameFactoryAddress != currentGameFactory, \"New game factory address must be different than current address.\");\r\n\r\n        oldGameFactories.push(currentGameFactory);\r\n        currentGameFactory = newGameFactoryAddress;\r\n    }\r\n}",
  "sourcePath": "C:\\Data\\Junior\\Consensys Academy\\Final Project\\EtherBinary\\contracts\\logic\\GameManager.sol",
  "compiler": {
    "name": "solc",
    "version": "0.4.24+commit.e67f0147.Emscripten.clang"
  },
  "schemaVersion": "2.0.1",
  "updatedAt": "2018-08-28T04:16:45.145Z"
}