{
  "contractName": "Owned",
  "abi": [
    {
      "inputs": [],
      "payable": false,
      "stateMutability": "nonpayable",
      "type": "constructor"
    },
    {
      "anonymous": false,
      "inputs": [
        {
          "indexed": true,
          "name": "previousOwner",
          "type": "address"
        },
        {
          "indexed": true,
          "name": "newOwner",
          "type": "address"
        }
      ],
      "name": "LogOwnerSet",
      "type": "event"
    },
    {
      "constant": false,
      "inputs": [
        {
          "name": "newOwner",
          "type": "address"
        }
      ],
      "name": "setOwner",
      "outputs": [
        {
          "name": "success",
          "type": "bool"
        }
      ],
      "payable": false,
      "stateMutability": "nonpayable",
      "type": "function"
    },
    {
      "constant": true,
      "inputs": [],
      "name": "getOwner",
      "outputs": [
        {
          "name": "owner",
          "type": "address"
        }
      ],
      "payable": false,
      "stateMutability": "view",
      "type": "function"
    }
  ],
  "bytecode": "0x608060405234801561001057600080fd5b5060008054600160a060020a03191633179055610199806100326000396000f30060806040526004361061004b5763ffffffff7c010000000000000000000000000000000000000000000000000000000060003504166313af40358114610050578063893d20e814610085575b600080fd5b34801561005c57600080fd5b50610071600160a060020a03600435166100b6565b604080519115158252519081900360200190f35b34801561009157600080fd5b5061009a61015e565b60408051600160a060020a039092168252519081900360200190f35b60008054600160a060020a031633146100ce57600080fd5b600054600160a060020a03838116911614156100e957600080fd5b600160a060020a03821615156100fe57600080fd5b6000805473ffffffffffffffffffffffffffffffffffffffff1916600160a060020a0384811691821780845560405192939116917fa1d2149652d81eb35c360c115fc7ac594124cb1ea8a5a33e9a7f5768c62869fb9190a3506001919050565b600054600160a060020a0316905600a165627a7a72305820f0f59ba4f95f0e29d538b43954cfc31437e99ae3fd6496a190f8620f8e272f7a0029",
  "source": "pragma solidity ^0.4.22;\r\n\r\nimport \"../interfaces/OwnedI.sol\";\r\n\r\ncontract Owned is OwnedI {\r\n    address internal ownerAddress;\r\n\r\n    modifier fromOwner() {\r\n        require(msg.sender == ownerAddress);\r\n        _;\r\n    }\r\n\r\n    constructor() public{\r\n        ownerAddress = msg.sender;\r\n    }\r\n\r\n    function setOwner (address newOwner) external fromOwner returns(bool success) {\r\n        require(newOwner != ownerAddress);\r\n        require(newOwner != address(0));\r\n\r\n        ownerAddress = newOwner;\r\n        emit LogOwnerSet(ownerAddress, newOwner);\r\n        return true;\r\n    }\r\n\r\n    function getOwner() external view returns(address owner) {\r\n        return ownerAddress;\t\t\r\n    }\r\n}",
  "sourcePath": "C:\\Data\\Junior\\Consensys Academy\\Final Project\\EtherBinary\\contracts\\implementations\\Owned.sol",
  "compiler": {
    "name": "solc",
    "version": "0.4.24+commit.e67f0147.Emscripten.clang"
  },
  "schemaVersion": "2.0.1",
  "updatedAt": "2018-08-28T04:16:34.163Z"
}