{
  "contractName": "Pausable",
  "abi": [
    {
      "constant": false,
      "inputs": [
        {
          "name": "newOwner",
          "type": "address"
        }
      ],
      "name": "setOwner",
      "outputs": [
        {
          "name": "success",
          "type": "bool"
        }
      ],
      "payable": false,
      "stateMutability": "nonpayable",
      "type": "function"
    },
    {
      "constant": true,
      "inputs": [],
      "name": "getOwner",
      "outputs": [
        {
          "name": "owner",
          "type": "address"
        }
      ],
      "payable": false,
      "stateMutability": "view",
      "type": "function"
    },
    {
      "inputs": [
        {
          "name": "initialState",
          "type": "bool"
        }
      ],
      "payable": false,
      "stateMutability": "nonpayable",
      "type": "constructor"
    },
    {
      "anonymous": false,
      "inputs": [
        {
          "indexed": true,
          "name": "sender",
          "type": "address"
        },
        {
          "indexed": true,
          "name": "newPausedState",
          "type": "bool"
        }
      ],
      "name": "LogPausedSet",
      "type": "event"
    },
    {
      "anonymous": false,
      "inputs": [
        {
          "indexed": true,
          "name": "previousOwner",
          "type": "address"
        },
        {
          "indexed": true,
          "name": "newOwner",
          "type": "address"
        }
      ],
      "name": "LogOwnerSet",
      "type": "event"
    },
    {
      "constant": false,
      "inputs": [
        {
          "name": "newState",
          "type": "bool"
        }
      ],
      "name": "setPaused",
      "outputs": [
        {
          "name": "success",
          "type": "bool"
        }
      ],
      "payable": false,
      "stateMutability": "nonpayable",
      "type": "function"
    },
    {
      "constant": true,
      "inputs": [],
      "name": "isPaused",
      "outputs": [
        {
          "name": "isIndeed",
          "type": "bool"
        }
      ],
      "payable": false,
      "stateMutability": "view",
      "type": "function"
    }
  ],
  "bytecode": "0x608060405234801561001057600080fd5b50604051602080610363833981016040525160008054911515740100000000000000000000000000000000000000000260a060020a60ff0219600160a060020a03199093163317929092169190911790556102f3806100706000396000f3006080604052600436106100615763ffffffff7c010000000000000000000000000000000000000000000000000000000060003504166313af4035811461006657806316c38b3c1461009b578063893d20e8146100b5578063b187bd26146100e6575b600080fd5b34801561007257600080fd5b50610087600160a060020a03600435166100fb565b604080519115158252519081900360200190f35b3480156100a757600080fd5b5061008760043515156101a3565b3480156100c157600080fd5b506100ca610297565b60408051600160a060020a039092168252519081900360200190f35b3480156100f257600080fd5b506100876102a6565b60008054600160a060020a0316331461011357600080fd5b600054600160a060020a038381169116141561012e57600080fd5b600160a060020a038216151561014357600080fd5b6000805473ffffffffffffffffffffffffffffffffffffffff1916600160a060020a0384811691821780845560405192939116917fa1d2149652d81eb35c360c115fc7ac594124cb1ea8a5a33e9a7f5768c62869fb9190a3506001919050565b60008054600160a060020a031633146101bb57600080fd5b60005460ff74010000000000000000000000000000000000000000909104161515821515141561022657604080517f08c379a0000000000000000000000000000000000000000000000000000000008152602060048201526000602482015290519081900360640190fd5b6000805474ff0000000000000000000000000000000000000000191674010000000000000000000000000000000000000000841515908102919091178255604051909133917fae0f86d9801b0bd39a2ce25d9fd1f202f2fd22e80150be4a99adb0275a635d6c9190a3506001919050565b600054600160a060020a031690565b60005474010000000000000000000000000000000000000000900460ff16905600a165627a7a7230582028499323db3ac79fcc94131fcba6e30092e5bdbdee83e2c1d42e32c4fca72fa40029",
  "source": "pragma solidity ^0.4.22;\r\n\r\nimport \"./Owned.sol\";\r\nimport \"../interfaces/PausableI.sol\";\r\n\r\n/** @title Contract that contains all the logic for a Pausable contract. */\r\ncontract Pausable is Owned, PausableI {\r\n    bool internal paused;\r\n\r\n    modifier whenPaused(){\r\n        require(paused, \"\");\r\n        _;\r\n    }\r\n\r\n    modifier whenNotPaused(){\r\n        require(!paused, \"\");\r\n        _;\r\n    }\r\n\r\n    constructor(bool initialState) public {\r\n        paused = initialState;\r\n    }\r\n\r\n    function setPaused(bool newState) external fromOwner returns(bool success) {\r\n        require(paused != newState, \"\");\r\n        paused = newState;\r\n        emit LogPausedSet(msg.sender, newState);\r\n\r\n        return true;\r\n    }\r\n\r\n    function isPaused() external view returns(bool isIndeed) {\r\n        return paused;\r\n    }\r\n}",
  "sourcePath": "C:\\Data\\Junior\\Development\\EtherBinary\\EtherBinary\\contracts\\implementations\\Pausable.sol",
  "compiler": {
    "name": "solc",
    "version": "0.4.24+commit.e67f0147.Emscripten.clang"
  },
  "schemaVersion": "2.0.1",
  "updatedAt": "2018-08-28T10:12:10.141Z"
}